{
  "contractName": "DiagnosisStorage",
  "abi": [
    {
      "inputs": [],
      "stateMutability": "nonpayable",
      "type": "constructor"
    },
    {
      "anonymous": false,
      "inputs": [
        {
          "indexed": true,
          "internalType": "uint256",
          "name": "patientId",
          "type": "uint256"
        },
        {
          "indexed": false,
          "internalType": "string",
          "name": "predictionLR",
          "type": "string"
        },
        {
          "indexed": false,
          "internalType": "string",
          "name": "predictionNN",
          "type": "string"
        },
        {
          "indexed": false,
          "internalType": "uint256",
          "name": "confidenceNN",
          "type": "uint256"
        }
      ],
      "name": "DiagnosisRecorded",
      "type": "event"
    },
    {
      "inputs": [],
      "name": "admin",
      "outputs": [
        {
          "internalType": "address",
          "name": "",
          "type": "address"
        }
      ],
      "stateMutability": "view",
      "type": "function",
      "constant": true
    },
    {
      "inputs": [
        {
          "internalType": "uint256",
          "name": "",
          "type": "uint256"
        }
      ],
      "name": "allDiagnoses",
      "outputs": [
        {
          "internalType": "uint256",
          "name": "patientId",
          "type": "uint256"
        },
        {
          "internalType": "string",
          "name": "predictionLR",
          "type": "string"
        },
        {
          "internalType": "string",
          "name": "predictionNN",
          "type": "string"
        },
        {
          "internalType": "uint256",
          "name": "confidenceNN",
          "type": "uint256"
        },
        {
          "internalType": "address",
          "name": "recordedBy",
          "type": "address"
        },
        {
          "internalType": "address",
          "name": "patientAddress",
          "type": "address"
        }
      ],
      "stateMutability": "view",
      "type": "function",
      "constant": true
    },
    {
      "inputs": [
        {
          "internalType": "address",
          "name": "",
          "type": "address"
        }
      ],
      "name": "authorizedDoctors",
      "outputs": [
        {
          "internalType": "bool",
          "name": "",
          "type": "bool"
        }
      ],
      "stateMutability": "view",
      "type": "function",
      "constant": true
    },
    {
      "inputs": [
        {
          "internalType": "uint256",
          "name": "",
          "type": "uint256"
        }
      ],
      "name": "hasDiagnosis",
      "outputs": [
        {
          "internalType": "bool",
          "name": "",
          "type": "bool"
        }
      ],
      "stateMutability": "view",
      "type": "function",
      "constant": true
    },
    {
      "inputs": [
        {
          "internalType": "uint256",
          "name": "",
          "type": "uint256"
        }
      ],
      "name": "patientDiagnoses",
      "outputs": [
        {
          "internalType": "uint256",
          "name": "patientId",
          "type": "uint256"
        },
        {
          "internalType": "string",
          "name": "predictionLR",
          "type": "string"
        },
        {
          "internalType": "string",
          "name": "predictionNN",
          "type": "string"
        },
        {
          "internalType": "uint256",
          "name": "confidenceNN",
          "type": "uint256"
        },
        {
          "internalType": "address",
          "name": "recordedBy",
          "type": "address"
        },
        {
          "internalType": "address",
          "name": "patientAddress",
          "type": "address"
        }
      ],
      "stateMutability": "view",
      "type": "function",
      "constant": true
    },
    {
      "inputs": [
        {
          "internalType": "address",
          "name": "_doctor",
          "type": "address"
        }
      ],
      "name": "authorizeDoctor",
      "outputs": [],
      "stateMutability": "nonpayable",
      "type": "function"
    },
    {
      "inputs": [
        {
          "internalType": "address",
          "name": "_doctor",
          "type": "address"
        }
      ],
      "name": "revokeDoctor",
      "outputs": [],
      "stateMutability": "nonpayable",
      "type": "function"
    },
    {
      "inputs": [
        {
          "internalType": "uint256",
          "name": "_patientId",
          "type": "uint256"
        },
        {
          "internalType": "string[]",
          "name": "_symptoms",
          "type": "string[]"
        },
        {
          "internalType": "string",
          "name": "_predictionLR",
          "type": "string"
        },
        {
          "internalType": "string",
          "name": "_predictionNN",
          "type": "string"
        },
        {
          "internalType": "uint256",
          "name": "_confidenceNN",
          "type": "uint256"
        },
        {
          "internalType": "address",
          "name": "_patientAddress",
          "type": "address"
        }
      ],
      "name": "recordDiagnosis",
      "outputs": [],
      "stateMutability": "nonpayable",
      "type": "function"
    },
    {
      "inputs": [
        {
          "internalType": "uint256",
          "name": "_patientId",
          "type": "uint256"
        }
      ],
      "name": "getDiagnosis",
      "outputs": [
        {
          "internalType": "string",
          "name": "predictionLR",
          "type": "string"
        },
        {
          "internalType": "string",
          "name": "predictionNN",
          "type": "string"
        },
        {
          "internalType": "uint256",
          "name": "confidenceNN",
          "type": "uint256"
        }
      ],
      "stateMutability": "view",
      "type": "function",
      "constant": true
    },
    {
      "inputs": [
        {
          "internalType": "uint256",
          "name": "_patientId",
          "type": "uint256"
        }
      ],
      "name": "getSymptoms",
      "outputs": [
        {
          "internalType": "string[]",
          "name": "",
          "type": "string[]"
        }
      ],
      "stateMutability": "view",
      "type": "function",
      "constant": true
    },
    {
      "inputs": [],
      "name": "getDiagnosisCount",
      "outputs": [
        {
          "internalType": "uint256",
          "name": "",
          "type": "uint256"
        }
      ],
      "stateMutability": "view",
      "type": "function",
      "constant": true
    }
  ],
  "bytecode": "0x608060405234801561001057600080fd5b5033600460006101000a81548173ffffffffffffffffffffffffffffffffffffffff021916908373ffffffffffffffffffffffffffffffffffffffff160217905550600160036000600460009054906101000a900473ffffffffffffffffffffffffffffffffffffffff1673ffffffffffffffffffffffffffffffffffffffff1673ffffffffffffffffffffffffffffffffffffffff16815260200190815260200160002060006101000a81548160ff021916908315150217905550611e62806100db6000396000f3fe608060405234801561001057600080fd5b50600436106100a95760003560e01c8063aeea4b1d11610071578063aeea4b1d14610178578063b3064666146101ad578063ca4c0db9146101dd578063e4ac0f73146101f9578063f5534b0e14610217578063f851a4401461024c576100a9565b80630416af27146100ae5780632d3975f0146100ca57806358c9202c146100fa57806373c440db14610116578063abb9acb314610148575b600080fd5b6100c860048036038101906100c39190611316565b61026a565b005b6100e460048036038101906100df9190611316565b610355565b6040516100f1919061135e565b60405180910390f35b610114600480360381019061010f9190611316565b610375565b005b610130600480360381019061012b91906113af565b610460565b60405161013f9392919061147b565b60405180910390f35b610162600480360381019061015d91906113af565b610873565b60405161016f919061135e565b60405180910390f35b610192600480360381019061018d91906113af565b610893565b6040516101a4969594939291906114cf565b60405180910390f35b6101c760048036038101906101c291906113af565b610a2f565b6040516101d4919061164a565b60405180910390f35b6101f760048036038101906101f29190611887565b610c30565b005b61020161100c565b60405161020e9190611968565b60405180910390f35b610231600480360381019061022c91906113af565b611018565b604051610243969594939291906114cf565b60405180910390f35b6102546111a4565b6040516102619190611983565b60405180910390f35b600460009054906101000a900473ffffffffffffffffffffffffffffffffffffffff1673ffffffffffffffffffffffffffffffffffffffff163373ffffffffffffffffffffffffffffffffffffffff16146102fa576040517f08c379a00000000000000000000000000000000000000000000000000000000081526004016102f1906119ea565b60405180910390fd5b6000600360008373ffffffffffffffffffffffffffffffffffffffff1673ffffffffffffffffffffffffffffffffffffffff16815260200190815260200160002060006101000a81548160ff02191690831515021790555050565b60036020528060005260406000206000915054906101000a900460ff1681565b600460009054906101000a900473ffffffffffffffffffffffffffffffffffffffff1673ffffffffffffffffffffffffffffffffffffffff163373ffffffffffffffffffffffffffffffffffffffff1614610405576040517f08c379a00000000000000000000000000000000000000000000000000000000081526004016103fc906119ea565b60405180910390fd5b6001600360008373ffffffffffffffffffffffffffffffffffffffff1673ffffffffffffffffffffffffffffffffffffffff16815260200190815260200160002060006101000a81548160ff02191690831515021790555050565b6060806000836001600082815260200190815260200160002060060160009054906101000a900473ffffffffffffffffffffffffffffffffffffffff1673ffffffffffffffffffffffffffffffffffffffff163373ffffffffffffffffffffffffffffffffffffffff16148061053757506001600082815260200190815260200160002060050160009054906101000a900473ffffffffffffffffffffffffffffffffffffffff1673ffffffffffffffffffffffffffffffffffffffff163373ffffffffffffffffffffffffffffffffffffffff16145b610576576040517f08c379a000000000000000000000000000000000000000000000000000000000815260040161056d90611a56565b60405180910390fd5b6000600160008781526020019081526020016000206040518060e00160405290816000820154815260200160018201805480602002602001604051908101604052809291908181526020016000905b828210156106715783829060005260206000200180546105e490611aa5565b80601f016020809104026020016040519081016040528092919081815260200182805461061090611aa5565b801561065d5780601f106106325761010080835404028352916020019161065d565b820191906000526020600020905b81548152906001019060200180831161064057829003601f168201915b5050505050815260200190600101906105c5565b50505050815260200160028201805461068990611aa5565b80601f01602080910402602001604051908101604052809291908181526020018280546106b590611aa5565b80156107025780601f106106d757610100808354040283529160200191610702565b820191906000526020600020905b8154815290600101906020018083116106e557829003601f168201915b5050505050815260200160038201805461071b90611aa5565b80601f016020809104026020016040519081016040528092919081815260200182805461074790611aa5565b80156107945780601f1061076957610100808354040283529160200191610794565b820191906000526020600020905b81548152906001019060200180831161077757829003601f168201915b50505050508152602001600482015481526020016005820160009054906101000a900473ffffffffffffffffffffffffffffffffffffffff1673ffffffffffffffffffffffffffffffffffffffff1673ffffffffffffffffffffffffffffffffffffffff1681526020016006820160009054906101000a900473ffffffffffffffffffffffffffffffffffffffff1673ffffffffffffffffffffffffffffffffffffffff1673ffffffffffffffffffffffffffffffffffffffff1681525050905080604001518160600151826080015194509450945050509193909250565b60026020528060005260406000206000915054906101000a900460ff1681565b600081815481106108a357600080fd5b90600052602060002090600702016000915090508060000154908060020180546108cc90611aa5565b80601f01602080910402602001604051908101604052809291908181526020018280546108f890611aa5565b80156109455780601f1061091a57610100808354040283529160200191610945565b820191906000526020600020905b81548152906001019060200180831161092857829003601f168201915b50505050509080600301805461095a90611aa5565b80601f016020809104026020016040519081016040528092919081815260200182805461098690611aa5565b80156109d35780601f106109a8576101008083540402835291602001916109d3565b820191906000526020600020905b8154815290600101906020018083116109b657829003601f168201915b5050505050908060040154908060050160009054906101000a900473ffffffffffffffffffffffffffffffffffffffff16908060060160009054906101000a900473ffffffffffffffffffffffffffffffffffffffff16905086565b6060816001600082815260200190815260200160002060060160009054906101000a900473ffffffffffffffffffffffffffffffffffffffff1673ffffffffffffffffffffffffffffffffffffffff163373ffffffffffffffffffffffffffffffffffffffff161480610b0357506001600082815260200190815260200160002060050160009054906101000a900473ffffffffffffffffffffffffffffffffffffffff1673ffffffffffffffffffffffffffffffffffffffff163373ffffffffffffffffffffffffffffffffffffffff16145b610b42576040517f08c379a0000000000000000000000000000000000000000000000000000000008152600401610b3990611a56565b60405180910390fd5b60016000848152602001908152602001600020600101805480602002602001604051908101604052809291908181526020016000905b82821015610c24578382906000526020600020018054610b9790611aa5565b80601f0160208091040260200160405190810160405280929190818152602001828054610bc390611aa5565b8015610c105780601f10610be557610100808354040283529160200191610c10565b820191906000526020600020905b815481529060010190602001808311610bf357829003601f168201915b505050505081526020019060010190610b78565b50505050915050919050565b600360003373ffffffffffffffffffffffffffffffffffffffff1673ffffffffffffffffffffffffffffffffffffffff16815260200190815260200160002060009054906101000a900460ff16610cbc576040517f08c379a0000000000000000000000000000000000000000000000000000000008152600401610cb390611b22565b60405180910390fd5b6002600087815260200190815260200160002060009054906101000a900460ff1615610d1d576040517f08c379a0000000000000000000000000000000000000000000000000000000008152600401610d1490611b8e565b60405180910390fd5b60006040518060e001604052808881526020018781526020018681526020018581526020018481526020013373ffffffffffffffffffffffffffffffffffffffff1681526020018373ffffffffffffffffffffffffffffffffffffffff1681525090506000819080600181540180825580915050600190039060005260206000209060070201600090919091909150600082015181600001556020820151816001019080519060200190610dd29291906111ca565b506040820151816002019081610de89190611d5a565b506060820151816003019081610dfe9190611d5a565b506080820151816004015560a08201518160050160006101000a81548173ffffffffffffffffffffffffffffffffffffffff021916908373ffffffffffffffffffffffffffffffffffffffff16021790555060c08201518160060160006101000a81548173ffffffffffffffffffffffffffffffffffffffff021916908373ffffffffffffffffffffffffffffffffffffffff16021790555050508060016000898152602001908152602001600020600082015181600001556020820151816001019080519060200190610ed39291906111ca565b506040820151816002019081610ee99190611d5a565b506060820151816003019081610eff9190611d5a565b506080820151816004015560a08201518160050160006101000a81548173ffffffffffffffffffffffffffffffffffffffff021916908373ffffffffffffffffffffffffffffffffffffffff16021790555060c08201518160060160006101000a81548173ffffffffffffffffffffffffffffffffffffffff021916908373ffffffffffffffffffffffffffffffffffffffff16021790555090505060016002600089815260200190815260200160002060006101000a81548160ff021916908315150217905550867f979ba0d1bde892ac38526311cb1c9b4301df21996dea1078bc70b62c700a4048868686604051610ffb9392919061147b565b60405180910390a250505050505050565b60008080549050905090565b600160205280600052604060002060009150905080600001549080600201805461104190611aa5565b80601f016020809104026020016040519081016040528092919081815260200182805461106d90611aa5565b80156110ba5780601f1061108f576101008083540402835291602001916110ba565b820191906000526020600020905b81548152906001019060200180831161109d57829003601f168201915b5050505050908060030180546110cf90611aa5565b80601f01602080910402602001604051908101604052809291908181526020018280546110fb90611aa5565b80156111485780601f1061111d57610100808354040283529160200191611148565b820191906000526020600020905b81548152906001019060200180831161112b57829003601f168201915b5050505050908060040154908060050160009054906101000a900473ffffffffffffffffffffffffffffffffffffffff16908060060160009054906101000a900473ffffffffffffffffffffffffffffffffffffffff16905086565b600460009054906101000a900473ffffffffffffffffffffffffffffffffffffffff1681565b828054828255906000526020600020908101928215611212579160200282015b828111156112115782518290816112019190611d5a565b50916020019190600101906111ea565b5b50905061121f9190611223565b5090565b5b80821115611243576000818161123a9190611247565b50600101611224565b5090565b50805461125390611aa5565b6000825580601f106112655750611284565b601f0160209004906000526020600020908101906112839190611287565b5b50565b5b808211156112a0576000816000905550600101611288565b5090565b6000604051905090565b600080fd5b600080fd5b600073ffffffffffffffffffffffffffffffffffffffff82169050919050565b60006112e3826112b8565b9050919050565b6112f3816112d8565b81146112fe57600080fd5b50565b600081359050611310816112ea565b92915050565b60006020828403121561132c5761132b6112ae565b5b600061133a84828501611301565b91505092915050565b60008115159050919050565b61135881611343565b82525050565b6000602082019050611373600083018461134f565b92915050565b6000819050919050565b61138c81611379565b811461139757600080fd5b50565b6000813590506113a981611383565b92915050565b6000602082840312156113c5576113c46112ae565b5b60006113d38482850161139a565b91505092915050565b600081519050919050565b600082825260208201905092915050565b60005b838110156114165780820151818401526020810190506113fb565b60008484015250505050565b6000601f19601f8301169050919050565b600061143e826113dc565b61144881856113e7565b93506114588185602086016113f8565b61146181611422565b840191505092915050565b61147581611379565b82525050565b600060608201905081810360008301526114958186611433565b905081810360208301526114a98185611433565b90506114b8604083018461146c565b949350505050565b6114c9816112d8565b82525050565b600060c0820190506114e4600083018961146c565b81810360208301526114f68188611433565b9050818103604083015261150a8187611433565b9050611519606083018661146c565b61152660808301856114c0565b61153360a08301846114c0565b979650505050505050565b600081519050919050565b600082825260208201905092915050565b6000819050602082019050919050565b600082825260208201905092915050565b6000611586826113dc565b611590818561156a565b93506115a08185602086016113f8565b6115a981611422565b840191505092915050565b60006115c0838361157b565b905092915050565b6000602082019050919050565b60006115e08261153e565b6115ea8185611549565b9350836020820285016115fc8561155a565b8060005b85811015611638578484038952815161161985826115b4565b9450611624836115c8565b925060208a01995050600181019050611600565b50829750879550505050505092915050565b6000602082019050818103600083015261166481846115d5565b905092915050565b600080fd5b7f4e487b7100000000000000000000000000000000000000000000000000000000600052604160045260246000fd5b6116a982611422565b810181811067ffffffffffffffff821117156116c8576116c7611671565b5b80604052505050565b60006116db6112a4565b90506116e782826116a0565b919050565b600067ffffffffffffffff82111561170757611706611671565b5b602082029050602081019050919050565b600080fd5b600080fd5b600067ffffffffffffffff82111561173d5761173c611671565b5b61174682611422565b9050602081019050919050565b82818337600083830152505050565b600061177561177084611722565b6116d1565b9050828152602081018484840111156117915761179061171d565b5b61179c848285611753565b509392505050565b600082601f8301126117b9576117b861166c565b5b81356117c9848260208601611762565b91505092915050565b60006117e56117e0846116ec565b6116d1565b9050808382526020820190506020840283018581111561180857611807611718565b5b835b8181101561184f57803567ffffffffffffffff81111561182d5761182c61166c565b5b80860161183a89826117a4565b8552602085019450505060208101905061180a565b5050509392505050565b600082601f83011261186e5761186d61166c565b5b813561187e8482602086016117d2565b91505092915050565b60008060008060008060c087890312156118a4576118a36112ae565b5b60006118b289828a0161139a565b965050602087013567ffffffffffffffff8111156118d3576118d26112b3565b5b6118df89828a01611859565b955050604087013567ffffffffffffffff811115611900576118ff6112b3565b5b61190c89828a016117a4565b945050606087013567ffffffffffffffff81111561192d5761192c6112b3565b5b61193989828a016117a4565b935050608061194a89828a0161139a565b92505060a061195b89828a01611301565b9150509295509295509295565b600060208201905061197d600083018461146c565b92915050565b600060208201905061199860008301846114c0565b92915050565b7f4f6e6c792061646d696e2063616e20706572666f726d20746869730000000000600082015250565b60006119d4601b836113e7565b91506119df8261199e565b602082019050919050565b60006020820190508181036000830152611a03816119c7565b9050919050565b7f4163636573732064656e69656400000000000000000000000000000000000000600082015250565b6000611a40600d836113e7565b9150611a4b82611a0a565b602082019050919050565b60006020820190508181036000830152611a6f81611a33565b9050919050565b7f4e487b7100000000000000000000000000000000000000000000000000000000600052602260045260246000fd5b60006002820490506001821680611abd57607f821691505b602082108103611ad057611acf611a76565b5b50919050565b7f4e6f7420616e20617574686f72697a656420646f63746f720000000000000000600082015250565b6000611b0c6018836113e7565b9150611b1782611ad6565b602082019050919050565b60006020820190508181036000830152611b3b81611aff565b9050919050565b7f446961676e6f73697320616c7265616479206578697374730000000000000000600082015250565b6000611b786018836113e7565b9150611b8382611b42565b602082019050919050565b60006020820190508181036000830152611ba781611b6b565b9050919050565b60008190508160005260206000209050919050565b60006020601f8301049050919050565b600082821b905092915050565b600060088302611c107fffffffffffffffffffffffffffffffffffffffffffffffffffffffffffffffff82611bd3565b611c1a8683611bd3565b95508019841693508086168417925050509392505050565b6000819050919050565b6000611c57611c52611c4d84611379565b611c32565b611379565b9050919050565b6000819050919050565b611c7183611c3c565b611c85611c7d82611c5e565b848454611be0565b825550505050565b600090565b611c9a611c8d565b611ca5818484611c68565b505050565b5b81811015611cc957611cbe600082611c92565b600181019050611cab565b5050565b601f821115611d0e57611cdf81611bae565b611ce884611bc3565b81016020851015611cf7578190505b611d0b611d0385611bc3565b830182611caa565b50505b505050565b600082821c905092915050565b6000611d3160001984600802611d13565b1980831691505092915050565b6000611d4a8383611d20565b9150826002028217905092915050565b611d63826113dc565b67ffffffffffffffff811115611d7c57611d7b611671565b5b611d868254611aa5565b611d91828285611ccd565b600060209050601f831160018114611dc45760008415611db2578287015190505b611dbc8582611d3e565b865550611e24565b601f198416611dd286611bae565b60005b82811015611dfa57848901518255600182019150602085019450602081019050611dd5565b86831015611e175784890151611e13601f891682611d20565b8355505b6001600288020188555050505b50505050505056fea2646970667358221220201d2474031e7a5b73e58d87dd5eeaf203712112f2bfade72326eb8ac15c024964736f6c63430008120033",
  "immutableReferences": {},
  "source": "// SPDX-License-Identifier: MIT\r\npragma solidity ^0.8.18;\r\n\r\ncontract DiagnosisStorage {\r\n    struct Diagnosis {\r\n        uint256 patientId;\r\n        string[] symptoms;\r\n        string predictionLR;\r\n        string predictionNN;\r\n        uint256 confidenceNN;\r\n        address recordedBy;\r\n        address patientAddress;\r\n    }\r\n\r\n    Diagnosis[] public allDiagnoses;\r\n    mapping(uint256 => Diagnosis) public patientDiagnoses;\r\n    mapping(uint256 => bool) public hasDiagnosis;\r\n    mapping(address => bool) public authorizedDoctors;\r\n\r\n    address public admin;\r\n\r\n    modifier onlyAdmin() {\r\n        require(msg.sender == admin, \"Only admin can perform this\");\r\n        _;\r\n    }\r\n\r\n    modifier onlyAuthorizedDoctor() {\r\n        require(authorizedDoctors[msg.sender], \"Not an authorized doctor\");\r\n        _;\r\n    }\r\n\r\n    modifier onlyPatientOrDoctor(uint256 _patientId) {\r\n        require(\r\n            msg.sender == patientDiagnoses[_patientId].patientAddress ||\r\n            msg.sender == patientDiagnoses[_patientId].recordedBy,\r\n            \"Access denied\"\r\n        );\r\n        _;\r\n    }\r\n\r\n    event DiagnosisRecorded(\r\n        uint256 indexed patientId,\r\n        string predictionLR,\r\n        string predictionNN,\r\n        uint256 confidenceNN\r\n    );\r\n\r\n    constructor() {\r\n        admin = msg.sender;\r\n        authorizedDoctors[admin] = true; //  Auto-authorize admin as doctor\r\n    }\r\n\r\n    function authorizeDoctor(address _doctor) public onlyAdmin {\r\n        authorizedDoctors[_doctor] = true;\r\n    }\r\n\r\n    function revokeDoctor(address _doctor) public onlyAdmin {\r\n        authorizedDoctors[_doctor] = false;\r\n    }\r\n\r\n    function recordDiagnosis(\r\n        uint256 _patientId,\r\n        string[] memory _symptoms,\r\n        string memory _predictionLR,\r\n        string memory _predictionNN,\r\n        uint256 _confidenceNN,\r\n        address _patientAddress\r\n    ) public onlyAuthorizedDoctor {\r\n        require(!hasDiagnosis[_patientId], \"Diagnosis already exists\");\r\n\r\n        Diagnosis memory newDiagnosis = Diagnosis({\r\n            patientId: _patientId,\r\n            symptoms: _symptoms,\r\n            predictionLR: _predictionLR,\r\n            predictionNN: _predictionNN,\r\n            confidenceNN: _confidenceNN,\r\n            recordedBy: msg.sender,\r\n            patientAddress: _patientAddress\r\n        });\r\n\r\n        allDiagnoses.push(newDiagnosis);\r\n        patientDiagnoses[_patientId] = newDiagnosis;\r\n        hasDiagnosis[_patientId] = true;\r\n\r\n        emit DiagnosisRecorded(_patientId, _predictionLR, _predictionNN, _confidenceNN);\r\n    }\r\n\r\n    function getDiagnosis(uint256 _patientId)\r\n        public\r\n        view\r\n        onlyPatientOrDoctor(_patientId)\r\n        returns (\r\n            string memory predictionLR,\r\n            string memory predictionNN,\r\n            uint256 confidenceNN\r\n        )\r\n    {\r\n        Diagnosis memory d = patientDiagnoses[_patientId];\r\n        return (d.predictionLR, d.predictionNN, d.confidenceNN);\r\n    }\r\n\r\n    function getSymptoms(uint256 _patientId)\r\n        public\r\n        view\r\n        onlyPatientOrDoctor(_patientId)\r\n        returns (string[] memory)\r\n    {\r\n        return patientDiagnoses[_patientId].symptoms;\r\n    }\r\n\r\n    function getDiagnosisCount() public view returns (uint256) {\r\n        return allDiagnoses.length;\r\n    }\r\n}\r\n",
  "sourcePath": "C:\\Users\\Administrator\\Will Projects\\python file\\Hospital_Management_System\\contracts\\DiagnosisStorage.sol",
  "compiler": {
    "name": "solc",
    "version": "0.8.18+commit.87f61d96.Emscripten.clang"
  },
  "schemaVersion": "3.4.16",
  "updatedAt": "2025-04-14T03:44:51.570Z",
  "networkType": "ethereum",
  "devdoc": {
    "kind": "dev",
    "methods": {},
    "version": 1
  },
  "userdoc": {
    "kind": "user",
    "methods": {},
    "version": 1
  }
}