{
  "contractName": "HospitalManagement",
  "abi": [
    {
      "inputs": [
        {
          "internalType": "string",
          "name": "name",
          "type": "string"
        },
        {
          "internalType": "string",
          "name": "symbol",
          "type": "string"
        }
      ],
      "stateMutability": "nonpayable",
      "type": "constructor"
    },
    {
      "anonymous": false,
      "inputs": [
        {
          "indexed": true,
          "internalType": "address",
          "name": "owner",
          "type": "address"
        },
        {
          "indexed": true,
          "internalType": "address",
          "name": "approved",
          "type": "address"
        },
        {
          "indexed": true,
          "internalType": "uint256",
          "name": "tokenId",
          "type": "uint256"
        }
      ],
      "name": "Approval",
      "type": "event"
    },
    {
      "anonymous": false,
      "inputs": [
        {
          "indexed": true,
          "internalType": "address",
          "name": "owner",
          "type": "address"
        },
        {
          "indexed": true,
          "internalType": "address",
          "name": "operator",
          "type": "address"
        },
        {
          "indexed": false,
          "internalType": "bool",
          "name": "approved",
          "type": "bool"
        }
      ],
      "name": "ApprovalForAll",
      "type": "event"
    },
    {
      "anonymous": false,
      "inputs": [
        {
          "indexed": false,
          "internalType": "uint256",
          "name": "_fromTokenId",
          "type": "uint256"
        },
        {
          "indexed": false,
          "internalType": "uint256",
          "name": "_toTokenId",
          "type": "uint256"
        }
      ],
      "name": "BatchMetadataUpdate",
      "type": "event"
    },
    {
      "anonymous": false,
      "inputs": [
        {
          "indexed": true,
          "internalType": "uint256",
          "name": "patientId",
          "type": "uint256"
        },
        {
          "indexed": false,
          "internalType": "string",
          "name": "description",
          "type": "string"
        },
        {
          "indexed": false,
          "internalType": "uint256",
          "name": "cost",
          "type": "uint256"
        }
      ],
      "name": "BillItemAdded",
      "type": "event"
    },
    {
      "anonymous": false,
      "inputs": [
        {
          "indexed": true,
          "internalType": "uint256",
          "name": "patientId",
          "type": "uint256"
        },
        {
          "indexed": false,
          "internalType": "string",
          "name": "diagnosis",
          "type": "string"
        },
        {
          "indexed": false,
          "internalType": "uint8",
          "name": "confidence",
          "type": "uint8"
        }
      ],
      "name": "DiagnosisRecorded",
      "type": "event"
    },
    {
      "anonymous": false,
      "inputs": [
        {
          "indexed": false,
          "internalType": "uint256",
          "name": "_tokenId",
          "type": "uint256"
        }
      ],
      "name": "MetadataUpdate",
      "type": "event"
    },
    {
      "anonymous": false,
      "inputs": [
        {
          "indexed": true,
          "internalType": "address",
          "name": "previousOwner",
          "type": "address"
        },
        {
          "indexed": true,
          "internalType": "address",
          "name": "newOwner",
          "type": "address"
        }
      ],
      "name": "OwnershipTransferred",
      "type": "event"
    },
    {
      "anonymous": false,
      "inputs": [
        {
          "indexed": true,
          "internalType": "uint256",
          "name": "patientId",
          "type": "uint256"
        }
      ],
      "name": "PatientAdmitted",
      "type": "event"
    },
    {
      "anonymous": false,
      "inputs": [
        {
          "indexed": true,
          "internalType": "uint256",
          "name": "patientId",
          "type": "uint256"
        }
      ],
      "name": "PatientDischarged",
      "type": "event"
    },
    {
      "anonymous": false,
      "inputs": [
        {
          "indexed": true,
          "internalType": "uint256",
          "name": "patientId",
          "type": "uint256"
        }
      ],
      "name": "PaymentProcessed",
      "type": "event"
    },
    {
      "anonymous": false,
      "inputs": [
        {
          "indexed": true,
          "internalType": "uint256",
          "name": "employeeId",
          "type": "uint256"
        },
        {
          "indexed": false,
          "internalType": "string",
          "name": "name",
          "type": "string"
        },
        {
          "indexed": false,
          "internalType": "string",
          "name": "role",
          "type": "string"
        },
        {
          "indexed": false,
          "internalType": "address",
          "name": "wallet",
          "type": "address"
        }
      ],
      "name": "StaffAdded",
      "type": "event"
    },
    {
      "anonymous": false,
      "inputs": [
        {
          "indexed": true,
          "internalType": "address",
          "name": "from",
          "type": "address"
        },
        {
          "indexed": true,
          "internalType": "address",
          "name": "to",
          "type": "address"
        },
        {
          "indexed": true,
          "internalType": "uint256",
          "name": "tokenId",
          "type": "uint256"
        }
      ],
      "name": "Transfer",
      "type": "event"
    },
    {
      "inputs": [
        {
          "internalType": "address",
          "name": "to",
          "type": "address"
        },
        {
          "internalType": "uint256",
          "name": "tokenId",
          "type": "uint256"
        }
      ],
      "name": "approve",
      "outputs": [],
      "stateMutability": "nonpayable",
      "type": "function"
    },
    {
      "inputs": [
        {
          "internalType": "address",
          "name": "",
          "type": "address"
        }
      ],
      "name": "authorizedStaff",
      "outputs": [
        {
          "internalType": "bool",
          "name": "",
          "type": "bool"
        }
      ],
      "stateMutability": "view",
      "type": "function",
      "constant": true
    },
    {
      "inputs": [
        {
          "internalType": "address",
          "name": "owner",
          "type": "address"
        }
      ],
      "name": "balanceOf",
      "outputs": [
        {
          "internalType": "uint256",
          "name": "",
          "type": "uint256"
        }
      ],
      "stateMutability": "view",
      "type": "function",
      "constant": true
    },
    {
      "inputs": [],
      "name": "bedCounter",
      "outputs": [
        {
          "internalType": "uint256",
          "name": "",
          "type": "uint256"
        }
      ],
      "stateMutability": "view",
      "type": "function",
      "constant": true
    },
    {
      "inputs": [],
      "name": "employeeCounter",
      "outputs": [
        {
          "internalType": "uint256",
          "name": "",
          "type": "uint256"
        }
      ],
      "stateMutability": "view",
      "type": "function",
      "constant": true
    },
    {
      "inputs": [
        {
          "internalType": "uint256",
          "name": "",
          "type": "uint256"
        }
      ],
      "name": "employees",
      "outputs": [
        {
          "internalType": "string",
          "name": "name",
          "type": "string"
        },
        {
          "internalType": "string",
          "name": "role",
          "type": "string"
        },
        {
          "internalType": "address",
          "name": "wallet",
          "type": "address"
        }
      ],
      "stateMutability": "view",
      "type": "function",
      "constant": true
    },
    {
      "inputs": [
        {
          "internalType": "uint256",
          "name": "tokenId",
          "type": "uint256"
        }
      ],
      "name": "getApproved",
      "outputs": [
        {
          "internalType": "address",
          "name": "",
          "type": "address"
        }
      ],
      "stateMutability": "view",
      "type": "function",
      "constant": true
    },
    {
      "inputs": [
        {
          "internalType": "uint256",
          "name": "",
          "type": "uint256"
        }
      ],
      "name": "hospitalBeds",
      "outputs": [
        {
          "internalType": "bool",
          "name": "",
          "type": "bool"
        }
      ],
      "stateMutability": "view",
      "type": "function",
      "constant": true
    },
    {
      "inputs": [
        {
          "internalType": "address",
          "name": "owner",
          "type": "address"
        },
        {
          "internalType": "address",
          "name": "operator",
          "type": "address"
        }
      ],
      "name": "isApprovedForAll",
      "outputs": [
        {
          "internalType": "bool",
          "name": "",
          "type": "bool"
        }
      ],
      "stateMutability": "view",
      "type": "function",
      "constant": true
    },
    {
      "inputs": [
        {
          "internalType": "address",
          "name": "account",
          "type": "address"
        }
      ],
      "name": "isStaff",
      "outputs": [
        {
          "internalType": "bool",
          "name": "",
          "type": "bool"
        }
      ],
      "stateMutability": "view",
      "type": "function",
      "constant": true
    },
    {
      "inputs": [],
      "name": "name",
      "outputs": [
        {
          "internalType": "string",
          "name": "",
          "type": "string"
        }
      ],
      "stateMutability": "view",
      "type": "function",
      "constant": true
    },
    {
      "inputs": [],
      "name": "owner",
      "outputs": [
        {
          "internalType": "address",
          "name": "",
          "type": "address"
        }
      ],
      "stateMutability": "view",
      "type": "function",
      "constant": true
    },
    {
      "inputs": [
        {
          "internalType": "uint256",
          "name": "tokenId",
          "type": "uint256"
        }
      ],
      "name": "ownerOf",
      "outputs": [
        {
          "internalType": "address",
          "name": "",
          "type": "address"
        }
      ],
      "stateMutability": "view",
      "type": "function",
      "constant": true
    },
    {
      "inputs": [
        {
          "internalType": "uint256",
          "name": "",
          "type": "uint256"
        },
        {
          "internalType": "uint256",
          "name": "",
          "type": "uint256"
        }
      ],
      "name": "patientBills",
      "outputs": [
        {
          "internalType": "string",
          "name": "description",
          "type": "string"
        },
        {
          "internalType": "uint256",
          "name": "cost",
          "type": "uint256"
        }
      ],
      "stateMutability": "view",
      "type": "function",
      "constant": true
    },
    {
      "inputs": [],
      "name": "patientCounter",
      "outputs": [
        {
          "internalType": "uint256",
          "name": "",
          "type": "uint256"
        }
      ],
      "stateMutability": "view",
      "type": "function",
      "constant": true
    },
    {
      "inputs": [
        {
          "internalType": "uint256",
          "name": "",
          "type": "uint256"
        }
      ],
      "name": "patients",
      "outputs": [
        {
          "internalType": "address",
          "name": "wallet",
          "type": "address"
        },
        {
          "internalType": "string",
          "name": "name",
          "type": "string"
        },
        {
          "internalType": "uint8",
          "name": "age",
          "type": "uint8"
        },
        {
          "internalType": "uint16",
          "name": "bedId",
          "type": "uint16"
        },
        {
          "internalType": "bool",
          "name": "admitted",
          "type": "bool"
        },
        {
          "internalType": "uint256",
          "name": "bill",
          "type": "uint256"
        },
        {
          "internalType": "bool",
          "name": "paid",
          "type": "bool"
        },
        {
          "internalType": "string",
          "name": "diagnosis",
          "type": "string"
        },
        {
          "internalType": "uint8",
          "name": "confidence",
          "type": "uint8"
        }
      ],
      "stateMutability": "view",
      "type": "function",
      "constant": true
    },
    {
      "inputs": [],
      "name": "renounceOwnership",
      "outputs": [],
      "stateMutability": "nonpayable",
      "type": "function"
    },
    {
      "inputs": [
        {
          "internalType": "address",
          "name": "from",
          "type": "address"
        },
        {
          "internalType": "address",
          "name": "to",
          "type": "address"
        },
        {
          "internalType": "uint256",
          "name": "tokenId",
          "type": "uint256"
        }
      ],
      "name": "safeTransferFrom",
      "outputs": [],
      "stateMutability": "nonpayable",
      "type": "function"
    },
    {
      "inputs": [
        {
          "internalType": "address",
          "name": "from",
          "type": "address"
        },
        {
          "internalType": "address",
          "name": "to",
          "type": "address"
        },
        {
          "internalType": "uint256",
          "name": "tokenId",
          "type": "uint256"
        },
        {
          "internalType": "bytes",
          "name": "data",
          "type": "bytes"
        }
      ],
      "name": "safeTransferFrom",
      "outputs": [],
      "stateMutability": "nonpayable",
      "type": "function"
    },
    {
      "inputs": [
        {
          "internalType": "address",
          "name": "operator",
          "type": "address"
        },
        {
          "internalType": "bool",
          "name": "approved",
          "type": "bool"
        }
      ],
      "name": "setApprovalForAll",
      "outputs": [],
      "stateMutability": "nonpayable",
      "type": "function"
    },
    {
      "inputs": [
        {
          "internalType": "bytes4",
          "name": "interfaceId",
          "type": "bytes4"
        }
      ],
      "name": "supportsInterface",
      "outputs": [
        {
          "internalType": "bool",
          "name": "",
          "type": "bool"
        }
      ],
      "stateMutability": "view",
      "type": "function",
      "constant": true
    },
    {
      "inputs": [],
      "name": "symbol",
      "outputs": [
        {
          "internalType": "string",
          "name": "",
          "type": "string"
        }
      ],
      "stateMutability": "view",
      "type": "function",
      "constant": true
    },
    {
      "inputs": [
        {
          "internalType": "uint256",
          "name": "tokenId",
          "type": "uint256"
        }
      ],
      "name": "tokenURI",
      "outputs": [
        {
          "internalType": "string",
          "name": "",
          "type": "string"
        }
      ],
      "stateMutability": "view",
      "type": "function",
      "constant": true
    },
    {
      "inputs": [
        {
          "internalType": "address",
          "name": "from",
          "type": "address"
        },
        {
          "internalType": "address",
          "name": "to",
          "type": "address"
        },
        {
          "internalType": "uint256",
          "name": "tokenId",
          "type": "uint256"
        }
      ],
      "name": "transferFrom",
      "outputs": [],
      "stateMutability": "nonpayable",
      "type": "function"
    },
    {
      "inputs": [
        {
          "internalType": "address",
          "name": "newOwner",
          "type": "address"
        }
      ],
      "name": "transferOwnership",
      "outputs": [],
      "stateMutability": "nonpayable",
      "type": "function"
    },
    {
      "stateMutability": "payable",
      "type": "receive",
      "payable": true
    },
    {
      "inputs": [
        {
          "internalType": "address",
          "name": "wallet",
          "type": "address"
        },
        {
          "internalType": "string",
          "name": "name",
          "type": "string"
        },
        {
          "internalType": "string",
          "name": "role",
          "type": "string"
        }
      ],
      "name": "addStaff",
      "outputs": [],
      "stateMutability": "nonpayable",
      "type": "function"
    },
    {
      "inputs": [
        {
          "internalType": "address",
          "name": "wallet",
          "type": "address"
        },
        {
          "internalType": "string",
          "name": "name",
          "type": "string"
        },
        {
          "internalType": "uint8",
          "name": "age",
          "type": "uint8"
        },
        {
          "internalType": "uint16",
          "name": "bedId",
          "type": "uint16"
        }
      ],
      "name": "admitPatient",
      "outputs": [],
      "stateMutability": "nonpayable",
      "type": "function"
    },
    {
      "inputs": [
        {
          "internalType": "uint256",
          "name": "patientId",
          "type": "uint256"
        },
        {
          "internalType": "string",
          "name": "desc",
          "type": "string"
        },
        {
          "internalType": "uint256",
          "name": "cost",
          "type": "uint256"
        }
      ],
      "name": "addBillItem",
      "outputs": [],
      "stateMutability": "nonpayable",
      "type": "function"
    },
    {
      "inputs": [
        {
          "internalType": "uint256",
          "name": "patientId",
          "type": "uint256"
        }
      ],
      "name": "payBill",
      "outputs": [],
      "stateMutability": "payable",
      "type": "function",
      "payable": true
    },
    {
      "inputs": [
        {
          "internalType": "uint256",
          "name": "patientId",
          "type": "uint256"
        }
      ],
      "name": "dischargePatient",
      "outputs": [],
      "stateMutability": "nonpayable",
      "type": "function"
    },
    {
      "inputs": [
        {
          "internalType": "uint256",
          "name": "patientId",
          "type": "uint256"
        },
        {
          "internalType": "string",
          "name": "diagnosis",
          "type": "string"
        },
        {
          "internalType": "uint8",
          "name": "confidence",
          "type": "uint8"
        }
      ],
      "name": "recordDiagnosis",
      "outputs": [],
      "stateMutability": "nonpayable",
      "type": "function"
    }
  ],
  "bytecode": "0x60806040523480156200001157600080fd5b506040516200583238038062005832833981810160405281019062000037919062000308565b818181600090816200004a9190620005d8565b5080600190816200005c9190620005d8565b5050506200007f62000073620000a760201b60201c565b620000af60201b60201c565b600160088190555060646010819055506001600b819055506001600f819055505050620006bf565b600033905090565b6000600760009054906101000a900473ffffffffffffffffffffffffffffffffffffffff16905081600760006101000a81548173ffffffffffffffffffffffffffffffffffffffff021916908373ffffffffffffffffffffffffffffffffffffffff1602179055508173ffffffffffffffffffffffffffffffffffffffff168173ffffffffffffffffffffffffffffffffffffffff167f8be0079c531659141344cd1fd0a4f28419497f9722a3daafe3b4186f6b6457e060405160405180910390a35050565b6000604051905090565b600080fd5b600080fd5b600080fd5b600080fd5b6000601f19601f8301169050919050565b7f4e487b7100000000000000000000000000000000000000000000000000000000600052604160045260246000fd5b620001de8262000193565b810181811067ffffffffffffffff821117156200020057620001ff620001a4565b5b80604052505050565b60006200021562000175565b9050620002238282620001d3565b919050565b600067ffffffffffffffff821115620002465762000245620001a4565b5b620002518262000193565b9050602081019050919050565b60005b838110156200027e57808201518184015260208101905062000261565b60008484015250505050565b6000620002a16200029b8462000228565b62000209565b905082815260208101848484011115620002c057620002bf6200018e565b5b620002cd8482856200025e565b509392505050565b600082601f830112620002ed57620002ec62000189565b5b8151620002ff8482602086016200028a565b91505092915050565b600080604083850312156200032257620003216200017f565b5b600083015167ffffffffffffffff81111562000343576200034262000184565b5b6200035185828601620002d5565b925050602083015167ffffffffffffffff81111562000375576200037462000184565b5b6200038385828601620002d5565b9150509250929050565b600081519050919050565b7f4e487b7100000000000000000000000000000000000000000000000000000000600052602260045260246000fd5b60006002820490506001821680620003e057607f821691505b602082108103620003f657620003f562000398565b5b50919050565b60008190508160005260206000209050919050565b60006020601f8301049050919050565b600082821b905092915050565b600060088302620004607fffffffffffffffffffffffffffffffffffffffffffffffffffffffffffffffff8262000421565b6200046c868362000421565b95508019841693508086168417925050509392505050565b6000819050919050565b6000819050919050565b6000620004b9620004b3620004ad8462000484565b6200048e565b62000484565b9050919050565b6000819050919050565b620004d58362000498565b620004ed620004e482620004c0565b8484546200042e565b825550505050565b600090565b62000504620004f5565b62000511818484620004ca565b505050565b5b8181101562000539576200052d600082620004fa565b60018101905062000517565b5050565b601f82111562000588576200055281620003fc565b6200055d8462000411565b810160208510156200056d578190505b620005856200057c8562000411565b83018262000516565b50505b505050565b600082821c905092915050565b6000620005ad600019846008026200058d565b1980831691505092915050565b6000620005c883836200059a565b9150826002028217905092915050565b620005e3826200038d565b67ffffffffffffffff811115620005ff57620005fe620001a4565b5b6200060b8254620003c7565b620006188282856200053d565b600060209050601f8311600181146200065057600084156200063b578287015190505b620006478582620005ba565b865550620006b7565b601f1984166200066086620003fc565b60005b828110156200068a5784890151825560018201915060208501945060208101905062000663565b86831015620006aa5784890151620006a6601f8916826200059a565b8355505b6001600288020188555050505b505050505050565b61516380620006cf6000396000f3fe6080604052600436106101dc5760003560e01c806379dd81e111610102578063c87b56dd11610095578063e985e9c511610064578063e985e9c514610755578063f097519014610792578063f2fde38b146107ae578063fb384919146107d75761021c565b8063c87b56dd14610687578063cb510e97146106c4578063d3df4f3a14610701578063e8e0b05c1461072a5761021c565b80639dadb009116100d15780639dadb009146105e3578063a22cb4651461060c578063b7d6a64014610635578063b88d4fde1461065e5761021c565b806379dd81e11461051d5780638da5cb5b1461054857806393119a831461057357806395d89b41146105b85761021c565b80633c3ce90b1161017a5780636352211e116101495780636352211e146104635780637026bb33146104a057806370a08231146104c9578063715018a6146105065761021c565b80633c3ce90b1461038057806342842e0e146103be5780634739326b146103e7578063565c90e6146104265761021c565b8063095ea7b3116101b6578063095ea7b3146102c657806323b872dd146102ef5780632feac1731461031857806331c8ee48146103555761021c565b806301ffc9a71461022157806306fdde031461025e578063081812fc146102895761021c565b3661021c576040517f08c379a0000000000000000000000000000000000000000000000000000000008152600401610213906133c3565b60405180910390fd5b600080fd5b34801561022d57600080fd5b506102486004803603810190610243919061344f565b610800565b6040516102559190613497565b60405180910390f35b34801561026a57600080fd5b50610273610861565b6040516102809190613531565b60405180910390f35b34801561029557600080fd5b506102b060048036038101906102ab9190613589565b6108f3565b6040516102bd91906135f7565b60405180910390f35b3480156102d257600080fd5b506102ed60048036038101906102e8919061363e565b610939565b005b3480156102fb57600080fd5b506103166004803603810190610311919061367e565b610a50565b005b34801561032457600080fd5b5061033f600480360381019061033a91906136d1565b610ab0565b60405161034c9190613497565b60405180910390f35b34801561036157600080fd5b5061036a610ad0565b604051610377919061370d565b60405180910390f35b34801561038c57600080fd5b506103a760048036038101906103a29190613728565b610ad6565b6040516103b5929190613768565b60405180910390f35b3480156103ca57600080fd5b506103e560048036038101906103e0919061367e565b610b9f565b005b3480156103f357600080fd5b5061040e60048036038101906104099190613589565b610bbf565b60405161041d93929190613798565b60405180910390f35b34801561043257600080fd5b5061044d60048036038101906104489190613589565b610d19565b60405161045a9190613497565b60405180910390f35b34801561046f57600080fd5b5061048a60048036038101906104859190613589565b610d39565b60405161049791906135f7565b60405180910390f35b3480156104ac57600080fd5b506104c760048036038101906104c29190613589565b610dbf565b005b3480156104d557600080fd5b506104f060048036038101906104eb91906136d1565b610e13565b6040516104fd919061370d565b60405180910390f35b34801561051257600080fd5b5061051b610eca565b005b34801561052957600080fd5b50610532610ede565b60405161053f919061370d565b60405180910390f35b34801561055457600080fd5b5061055d610ee4565b60405161056a91906135f7565b60405180910390f35b34801561057f57600080fd5b5061059a60048036038101906105959190613589565b610f0e565b6040516105af99989796959493929190613816565b60405180910390f35b3480156105c457600080fd5b506105cd6110ce565b6040516105da9190613531565b60405180910390f35b3480156105ef57600080fd5b5061060a600480360381019061060591906139e6565b611160565b005b34801561061857600080fd5b50610633600480360381019061062e9190613a81565b6111b8565b005b34801561064157600080fd5b5061065c60048036038101906106579190613ac1565b6111ce565b005b34801561066a57600080fd5b5061068560048036038101906106809190613bed565b6111e6565b005b34801561069357600080fd5b506106ae60048036038101906106a99190613589565b611248565b6040516106bb9190613531565b60405180910390f35b3480156106d057600080fd5b506106eb60048036038101906106e691906136d1565b61135a565b6040516106f89190613497565b60405180910390f35b34801561070d57600080fd5b5061072860048036038101906107239190613cc8565b6113b0565b005b34801561073657600080fd5b5061073f611459565b60405161074c919061370d565b60405180910390f35b34801561076157600080fd5b5061077c60048036038101906107779190613d4b565b61145f565b6040516107899190613497565b60405180910390f35b6107ac60048036038101906107a79190613589565b6114f3565b005b3480156107ba57600080fd5b506107d560048036038101906107d091906136d1565b611702565b005b3480156107e357600080fd5b506107fe60048036038101906107f99190613d8b565b611785565b005b6000634906490660e01b7bffffffffffffffffffffffffffffffffffffffffffffffffffffffff1916827bffffffffffffffffffffffffffffffffffffffffffffffffffffffff1916148061085a5750610859826117dd565b5b9050919050565b60606000805461087090613e29565b80601f016020809104026020016040519081016040528092919081815260200182805461089c90613e29565b80156108e95780601f106108be576101008083540402835291602001916108e9565b820191906000526020600020905b8154815290600101906020018083116108cc57829003601f168201915b5050505050905090565b60006108fe826118bf565b6004600083815260200190815260200160002060009054906101000a900473ffffffffffffffffffffffffffffffffffffffff169050919050565b600061094482610d39565b90508073ffffffffffffffffffffffffffffffffffffffff168373ffffffffffffffffffffffffffffffffffffffff16036109b4576040517f08c379a00000000000000000000000000000000000000000000000000000000081526004016109ab90613ecc565b60405180910390fd5b8073ffffffffffffffffffffffffffffffffffffffff166109d361190a565b73ffffffffffffffffffffffffffffffffffffffff161480610a025750610a01816109fc61190a565b61145f565b5b610a41576040517f08c379a0000000000000000000000000000000000000000000000000000000008152600401610a3890613f5e565b60405180910390fd5b610a4b8383611912565b505050565b610a61610a5b61190a565b826119cb565b610aa0576040517f08c379a0000000000000000000000000000000000000000000000000000000008152600401610a9790613ff0565b60405180910390fd5b610aab838383611a60565b505050565b600e6020528060005260406000206000915054906101000a900460ff1681565b60105481565b600c6020528160005260406000208181548110610af257600080fd5b906000526020600020906002020160009150915050806000018054610b1690613e29565b80601f0160208091040260200160405190810160405280929190818152602001828054610b4290613e29565b8015610b8f5780601f10610b6457610100808354040283529160200191610b8f565b820191906000526020600020905b815481529060010190602001808311610b7257829003601f168201915b5050505050908060010154905082565b610bba838383604051806020016040528060008152506111e6565b505050565b600d602052806000526040600020600091509050806000018054610be290613e29565b80601f0160208091040260200160405190810160405280929190818152602001828054610c0e90613e29565b8015610c5b5780601f10610c3057610100808354040283529160200191610c5b565b820191906000526020600020905b815481529060010190602001808311610c3e57829003601f168201915b505050505090806001018054610c7090613e29565b80601f0160208091040260200160405190810160405280929190818152602001828054610c9c90613e29565b8015610ce95780601f10610cbe57610100808354040283529160200191610ce9565b820191906000526020600020905b815481529060010190602001808311610ccc57829003601f168201915b5050505050908060020160009054906101000a900473ffffffffffffffffffffffffffffffffffffffff16905083565b600a6020528060005260406000206000915054906101000a900460ff1681565b600080610d4583611d59565b9050600073ffffffffffffffffffffffffffffffffffffffff168173ffffffffffffffffffffffffffffffffffffffff1603610db6576040517f08c379a0000000000000000000000000000000000000000000000000000000008152600401610dad9061405c565b60405180910390fd5b80915050919050565b610dc83361135a565b610e07576040517f08c379a0000000000000000000000000000000000000000000000000000000008152600401610dfe906140c8565b60405180910390fd5b610e1081611d96565b50565b60008073ffffffffffffffffffffffffffffffffffffffff168273ffffffffffffffffffffffffffffffffffffffff1603610e83576040517f08c379a0000000000000000000000000000000000000000000000000000000008152600401610e7a9061415a565b60405180910390fd5b600360008373ffffffffffffffffffffffffffffffffffffffff1673ffffffffffffffffffffffffffffffffffffffff168152602001908152602001600020549050919050565b610ed2611f0f565b610edc6000611f8d565b565b600f5481565b6000600760009054906101000a900473ffffffffffffffffffffffffffffffffffffffff16905090565b60096020528060005260406000206000915090508060000160009054906101000a900473ffffffffffffffffffffffffffffffffffffffff1690806001018054610f5790613e29565b80601f0160208091040260200160405190810160405280929190818152602001828054610f8390613e29565b8015610fd05780601f10610fa557610100808354040283529160200191610fd0565b820191906000526020600020905b815481529060010190602001808311610fb357829003601f168201915b5050505050908060020160009054906101000a900460ff16908060020160019054906101000a900461ffff16908060020160039054906101000a900460ff16908060030154908060040160009054906101000a900460ff169080600501805461103890613e29565b80601f016020809104026020016040519081016040528092919081815260200182805461106490613e29565b80156110b15780601f10611086576101008083540402835291602001916110b1565b820191906000526020600020905b81548152906001019060200180831161109457829003601f168201915b5050505050908060060160009054906101000a900460ff16905089565b6060600180546110dd90613e29565b80601f016020809104026020016040519081016040528092919081815260200182805461110990613e29565b80156111565780601f1061112b57610100808354040283529160200191611156565b820191906000526020600020905b81548152906001019060200180831161113957829003601f168201915b5050505050905090565b6111693361135a565b6111a8576040517f08c379a000000000000000000000000000000000000000000000000000000000815260040161119f906140c8565b60405180910390fd5b6111b3838383612053565b505050565b6111ca6111c361190a565b8383612196565b5050565b6111d6611f0f565b6111e1838383612302565b505050565b6111f76111f161190a565b836119cb565b611236576040517f08c379a000000000000000000000000000000000000000000000000000000000815260040161122d90613ff0565b60405180910390fd5b611242848484846124e0565b50505050565b6060611253826118bf565b600060066000848152602001908152602001600020805461127390613e29565b80601f016020809104026020016040519081016040528092919081815260200182805461129f90613e29565b80156112ec5780601f106112c1576101008083540402835291602001916112ec565b820191906000526020600020905b8154815290600101906020018083116112cf57829003601f168201915b5050505050905060006112fd61253c565b90506000815103611312578192505050611355565b60008251111561134757808260405160200161132f9291906141b6565b60405160208183030381529060405292505050611355565b61135084612553565b925050505b919050565b6000600e60008373ffffffffffffffffffffffffffffffffffffffff1673ffffffffffffffffffffffffffffffffffffffff16815260200190815260200160002060009054906101000a900460ff169050919050565b6113b93361135a565b6113f8576040517f08c379a00000000000000000000000000000000000000000000000000000000081526004016113ef906140c8565b60405180910390fd5b611404848484846125bb565b60006001600b546114159190614209565b905061142185826128be565b6114528161142e83612adb565b60405160200161143e91906142fb565b604051602081830303815290604052612ba9565b5050505050565b600b5481565b6000600560008473ffffffffffffffffffffffffffffffffffffffff1673ffffffffffffffffffffffffffffffffffffffff16815260200190815260200160002060008373ffffffffffffffffffffffffffffffffffffffff1673ffffffffffffffffffffffffffffffffffffffff16815260200190815260200160002060009054906101000a900460ff16905092915050565b601160009054906101000a900460ff1615611543576040517f08c379a000000000000000000000000000000000000000000000000000000000815260040161153a90614374565b60405180910390fd5b6001601160006101000a81548160ff0219169083151502179055506009600082815260200190815260200160002060000160009054906101000a900473ffffffffffffffffffffffffffffffffffffffff1673ffffffffffffffffffffffffffffffffffffffff163373ffffffffffffffffffffffffffffffffffffffff1614611602576040517f08c379a00000000000000000000000000000000000000000000000000000000081526004016115f9906143e0565b60405180910390fd5b600061160d82612c4d565b905080341015611652576040517f08c379a00000000000000000000000000000000000000000000000000000000081526004016116499061444c565b60405180910390fd5b803411156116ad573373ffffffffffffffffffffffffffffffffffffffff166108fc82346116809190614209565b9081150290604051600060405180830381858888f193505050501580156116ab573d6000803e3d6000fd5b505b6116b682612da9565b817fcff5d694e6a309557fa48081000c42ece1f65fba8fbfdefdefc4e6c7108d55b160405160405180910390a2506000601160006101000a81548160ff02191690831515021790555050565b61170a611f0f565b600073ffffffffffffffffffffffffffffffffffffffff168173ffffffffffffffffffffffffffffffffffffffff1603611779576040517f08c379a0000000000000000000000000000000000000000000000000000000008152600401611770906144de565b60405180910390fd5b61178281611f8d565b50565b61178e3361135a565b6117cd576040517f08c379a00000000000000000000000000000000000000000000000000000000081526004016117c4906140c8565b60405180910390fd5b6117d8838383612ddb565b505050565b60007f80ac58cd000000000000000000000000000000000000000000000000000000007bffffffffffffffffffffffffffffffffffffffffffffffffffffffff1916827bffffffffffffffffffffffffffffffffffffffffffffffffffffffff191614806118a857507f5b5e139f000000000000000000000000000000000000000000000000000000007bffffffffffffffffffffffffffffffffffffffffffffffffffffffff1916827bffffffffffffffffffffffffffffffffffffffffffffffffffffffff1916145b806118b857506118b782612f5b565b5b9050919050565b6118c881612fc5565b611907576040517f08c379a00000000000000000000000000000000000000000000000000000000081526004016118fe9061405c565b60405180910390fd5b50565b600033905090565b816004600083815260200190815260200160002060006101000a81548173ffffffffffffffffffffffffffffffffffffffff021916908373ffffffffffffffffffffffffffffffffffffffff160217905550808273ffffffffffffffffffffffffffffffffffffffff1661198583610d39565b73ffffffffffffffffffffffffffffffffffffffff167f8c5be1e5ebec7d5bd14f71427d1e84f3dd0314c0f7b2291e5b200ac8c7c3b92560405160405180910390a45050565b6000806119d783610d39565b90508073ffffffffffffffffffffffffffffffffffffffff168473ffffffffffffffffffffffffffffffffffffffff161480611a195750611a18818561145f565b5b80611a5757508373ffffffffffffffffffffffffffffffffffffffff16611a3f846108f3565b73ffffffffffffffffffffffffffffffffffffffff16145b91505092915050565b8273ffffffffffffffffffffffffffffffffffffffff16611a8082610d39565b73ffffffffffffffffffffffffffffffffffffffff1614611ad6576040517f08c379a0000000000000000000000000000000000000000000000000000000008152600401611acd90614570565b60405180910390fd5b600073ffffffffffffffffffffffffffffffffffffffff168273ffffffffffffffffffffffffffffffffffffffff1603611b45576040517f08c379a0000000000000000000000000000000000000000000000000000000008152600401611b3c90614602565b60405180910390fd5b611b528383836001613006565b8273ffffffffffffffffffffffffffffffffffffffff16611b7282610d39565b73ffffffffffffffffffffffffffffffffffffffff1614611bc8576040517f08c379a0000000000000000000000000000000000000000000000000000000008152600401611bbf90614570565b60405180910390fd5b6004600082815260200190815260200160002060006101000a81549073ffffffffffffffffffffffffffffffffffffffff02191690556001600360008573ffffffffffffffffffffffffffffffffffffffff1673ffffffffffffffffffffffffffffffffffffffff168152602001908152602001600020600082825403925050819055506001600360008473ffffffffffffffffffffffffffffffffffffffff1673ffffffffffffffffffffffffffffffffffffffff16815260200190815260200160002060008282540192505081905550816002600083815260200190815260200160002060006101000a81548173ffffffffffffffffffffffffffffffffffffffff021916908373ffffffffffffffffffffffffffffffffffffffff160217905550808273ffffffffffffffffffffffffffffffffffffffff168473ffffffffffffffffffffffffffffffffffffffff167fddf252ad1be2c89b69c2b068fc378daa952ba7f163c4a11628f55a4df523b3ef60405160405180910390a4611d54838383600161300c565b505050565b60006002600083815260200190815260200160002060009054906101000a900473ffffffffffffffffffffffffffffffffffffffff169050919050565b6009600082815260200190815260200160002060020160039054906101000a900460ff16611df9576040517f08c379a0000000000000000000000000000000000000000000000000000000008152600401611df09061466e565b60405180910390fd5b6009600082815260200190815260200160002060040160009054906101000a900460ff16611e5c576040517f08c379a0000000000000000000000000000000000000000000000000000000008152600401611e53906146da565b60405180910390fd5b6000600a60006009600085815260200190815260200160002060020160019054906101000a900461ffff1661ffff16815260200190815260200160002060006101000a81548160ff02191690831515021790555060006009600083815260200190815260200160002060020160036101000a81548160ff021916908315150217905550807f6294af96875788e102466087d7e81a784b9b8ab4a600af0619f4c27400f8c29060405160405180910390a250565b611f1761190a565b73ffffffffffffffffffffffffffffffffffffffff16611f35610ee4565b73ffffffffffffffffffffffffffffffffffffffff1614611f8b576040517f08c379a0000000000000000000000000000000000000000000000000000000008152600401611f8290614746565b60405180910390fd5b565b6000600760009054906101000a900473ffffffffffffffffffffffffffffffffffffffff16905081600760006101000a81548173ffffffffffffffffffffffffffffffffffffffff021916908373ffffffffffffffffffffffffffffffffffffffff1602179055508173ffffffffffffffffffffffffffffffffffffffff168173ffffffffffffffffffffffffffffffffffffffff167f8be0079c531659141344cd1fd0a4f28419497f9722a3daafe3b4186f6b6457e060405160405180910390a35050565b60008111612096576040517f08c379a000000000000000000000000000000000000000000000000000000000815260040161208d906147b2565b60405180910390fd5b60008251116120da576040517f08c379a00000000000000000000000000000000000000000000000000000000081526004016120d19061481e565b60405180910390fd5b600c60008481526020019081526020016000206040518060400160405280848152602001838152509080600181540180825580915050600190039060005260206000209060020201600090919091909150600082015181600001908161214091906149ea565b506020820151816001015550506121578382613012565b827f59a58c7311a2d03dd65504e4f5b1ddc6ee02ae971419cf6ab8e707edb077292d8383604051612189929190613768565b60405180910390a2505050565b8173ffffffffffffffffffffffffffffffffffffffff168373ffffffffffffffffffffffffffffffffffffffff1603612204576040517f08c379a00000000000000000000000000000000000000000000000000000000081526004016121fb90614b08565b60405180910390fd5b80600560008573ffffffffffffffffffffffffffffffffffffffff1673ffffffffffffffffffffffffffffffffffffffff16815260200190815260200160002060008473ffffffffffffffffffffffffffffffffffffffff1673ffffffffffffffffffffffffffffffffffffffff16815260200190815260200160002060006101000a81548160ff0219169083151502179055508173ffffffffffffffffffffffffffffffffffffffff168373ffffffffffffffffffffffffffffffffffffffff167f17307eab39ab6107e8899845ad3d59bd9653f200f220920489ca2b5937696c31836040516122f59190613497565b60405180910390a3505050565b600073ffffffffffffffffffffffffffffffffffffffff168373ffffffffffffffffffffffffffffffffffffffff1603612371576040517f08c379a000000000000000000000000000000000000000000000000000000000815260040161236890614b74565b60405180910390fd5b60405180606001604052808381526020018281526020018473ffffffffffffffffffffffffffffffffffffffff16815250600d6000600f54815260200190815260200160002060008201518160000190816123cc91906149ea565b5060208201518160010190816123e291906149ea565b5060408201518160020160006101000a81548173ffffffffffffffffffffffffffffffffffffffff021916908373ffffffffffffffffffffffffffffffffffffffff1602179055509050506001600e60008573ffffffffffffffffffffffffffffffffffffffff1673ffffffffffffffffffffffffffffffffffffffff16815260200190815260200160002060006101000a81548160ff021916908315150217905550600f547f06467ad67fc97c55ebdfbd185428c6c345ebb050bdf4de6059352d963dad97e98383866040516124bb93929190613798565b60405180910390a2600f60008154809291906124d690614b94565b9190505550505050565b6124eb848484611a60565b6124f784848484613043565b612536576040517f08c379a000000000000000000000000000000000000000000000000000000000815260040161252d90614c4e565b60405180910390fd5b50505050565b606060405180602001604052806000815250905090565b606061255e826118bf565b600061256861253c565b9050600081511161258857604051806020016040528060008152506125b3565b8061259284612adb565b6040516020016125a39291906141b6565b6040516020818303038152906040525b915050919050565b600073ffffffffffffffffffffffffffffffffffffffff168473ffffffffffffffffffffffffffffffffffffffff160361262a576040517f08c379a000000000000000000000000000000000000000000000000000000000815260040161262190614cba565b60405180910390fd5b600a60008261ffff16815260200190815260200160002060009054906101000a900460ff161561268f576040517f08c379a000000000000000000000000000000000000000000000000000000000815260040161268690614d26565b60405180910390fd5b6040518061012001604052808573ffffffffffffffffffffffffffffffffffffffff1681526020018481526020018360ff1681526020018261ffff16815260200160011515815260200160008152602001600015158152602001604051806020016040528060008152508152602001600060ff1681525060096000600b54815260200190815260200160002060008201518160000160006101000a81548173ffffffffffffffffffffffffffffffffffffffff021916908373ffffffffffffffffffffffffffffffffffffffff160217905550602082015181600101908161277791906149ea565b5060408201518160020160006101000a81548160ff021916908360ff16021790555060608201518160020160016101000a81548161ffff021916908361ffff16021790555060808201518160020160036101000a81548160ff02191690831515021790555060a0820151816003015560c08201518160040160006101000a81548160ff02191690831515021790555060e082015181600501908161281b91906149ea565b506101008201518160060160006101000a81548160ff021916908360ff1602179055509050506001600a60008361ffff16815260200190815260200160002060006101000a81548160ff021916908315150217905550600b547fe07d481a79ebef1c024c1b9d207c8f58d0e60043d01cc40eb7206401b1a15d5360405160405180910390a2600b60008154809291906128b390614b94565b919050555050505050565b600073ffffffffffffffffffffffffffffffffffffffff168273ffffffffffffffffffffffffffffffffffffffff160361292d576040517f08c379a000000000000000000000000000000000000000000000000000000000815260040161292490614d92565b60405180910390fd5b61293681612fc5565b15612976576040517f08c379a000000000000000000000000000000000000000000000000000000000815260040161296d90614dfe565b60405180910390fd5b612984600083836001613006565b61298d81612fc5565b156129cd576040517f08c379a00000000000000000000000000000000000000000000000000000000081526004016129c490614dfe565b60405180910390fd5b6001600360008473ffffffffffffffffffffffffffffffffffffffff1673ffffffffffffffffffffffffffffffffffffffff16815260200190815260200160002060008282540192505081905550816002600083815260200190815260200160002060006101000a81548173ffffffffffffffffffffffffffffffffffffffff021916908373ffffffffffffffffffffffffffffffffffffffff160217905550808273ffffffffffffffffffffffffffffffffffffffff16600073ffffffffffffffffffffffffffffffffffffffff167fddf252ad1be2c89b69c2b068fc378daa952ba7f163c4a11628f55a4df523b3ef60405160405180910390a4612ad760008383600161300c565b5050565b606060006001612aea846131ca565b01905060008167ffffffffffffffff811115612b0957612b086138bb565b5b6040519080825280601f01601f191660200182016040528015612b3b5781602001600182028036833780820191505090505b509050600082602001820190505b600115612b9e578080600190039150507f3031323334353637383961626364656600000000000000000000000000000000600a86061a8153600a8581612b9257612b91614e1e565b5b04945060008503612b49575b819350505050919050565b612bb282612fc5565b612bf1576040517f08c379a0000000000000000000000000000000000000000000000000000000008152600401612be890614ebf565b60405180910390fd5b80600660008481526020019081526020016000209081612c1191906149ea565b507ff8e1a15aba9398e019f0b49df1a4fde98ee17ae345cb5f6b5e2c27f5033e8ce782604051612c41919061370d565b60405180910390a15050565b600080600c6000848152602001908152602001600020805480602002602001604051908101604052809291908181526020016000905b82821015612d515783829060005260206000209060020201604051806040016040529081600082018054612cb690613e29565b80601f0160208091040260200160405190810160405280929190818152602001828054612ce290613e29565b8015612d2f5780601f10612d0457610100808354040283529160200191612d2f565b820191906000526020600020905b815481529060010190602001808311612d1257829003601f168201915b5050505050815260200160018201548152505081526020019060010190612c83565b50505050905060005b8151811015612da257818181518110612d7657612d75614edf565b5b60200260200101516020015183612d8d9190614f0e565b92508080612d9a90614b94565b915050612d5a565b5050919050565b60016009600083815260200190815260200160002060040160006101000a81548160ff02191690831515021790555050565b6009600084815260200190815260200160002060020160039054906101000a900460ff16612e3e576040517f08c379a0000000000000000000000000000000000000000000000000000000008152600401612e359061466e565b60405180910390fd5b60648160ff161115612e85576040517f08c379a0000000000000000000000000000000000000000000000000000000008152600401612e7c90614f8e565b60405180910390fd5b6000825111612ec9576040517f08c379a0000000000000000000000000000000000000000000000000000000008152600401612ec090614ffa565b60405180910390fd5b81600960008581526020019081526020016000206005019081612eec91906149ea565b50806009600085815260200190815260200160002060060160006101000a81548160ff021916908360ff160217905550827f88acd4a06135bfbaac3d3054efcc63f1e427b5c0585235e3fb94672462773b1f8383604051612f4e92919061501a565b60405180910390a2505050565b60007f01ffc9a7000000000000000000000000000000000000000000000000000000007bffffffffffffffffffffffffffffffffffffffffffffffffffffffff1916827bffffffffffffffffffffffffffffffffffffffffffffffffffffffff1916149050919050565b60008073ffffffffffffffffffffffffffffffffffffffff16612fe783611d59565b73ffffffffffffffffffffffffffffffffffffffff1614159050919050565b50505050565b50505050565b806009600084815260200190815260200160002060030160008282546130389190614f0e565b925050819055505050565b60006130648473ffffffffffffffffffffffffffffffffffffffff1661331d565b156131bd578373ffffffffffffffffffffffffffffffffffffffff1663150b7a0261308d61190a565b8786866040518563ffffffff1660e01b81526004016130af949392919061509f565b6020604051808303816000875af19250505080156130eb57506040513d601f19601f820116820180604052508101906130e89190615100565b60015b61316d573d806000811461311b576040519150601f19603f3d011682016040523d82523d6000602084013e613120565b606091505b506000815103613165576040517f08c379a000000000000000000000000000000000000000000000000000000000815260040161315c90614c4e565b60405180910390fd5b805181602001fd5b63150b7a0260e01b7bffffffffffffffffffffffffffffffffffffffffffffffffffffffff1916817bffffffffffffffffffffffffffffffffffffffffffffffffffffffff1916149150506131c2565b600190505b949350505050565b600080600090507a184f03e93ff9f4daa797ed6e38ed64bf6a1f0100000000000000008310613228577a184f03e93ff9f4daa797ed6e38ed64bf6a1f010000000000000000838161321e5761321d614e1e565b5b0492506040810190505b6d04ee2d6d415b85acef81000000008310613265576d04ee2d6d415b85acef8100000000838161325b5761325a614e1e565b5b0492506020810190505b662386f26fc10000831061329457662386f26fc10000838161328a57613289614e1e565b5b0492506010810190505b6305f5e10083106132bd576305f5e10083816132b3576132b2614e1e565b5b0492506008810190505b61271083106132e25761271083816132d8576132d7614e1e565b5b0492506004810190505b6064831061330557606483816132fb576132fa614e1e565b5b0492506002810190505b600a8310613314576001810190505b80915050919050565b6000808273ffffffffffffffffffffffffffffffffffffffff163b119050919050565b600082825260208201905092915050565b7f446972656374204574686572207472616e7366657273206e6f7420616c6c6f7760008201527f6564000000000000000000000000000000000000000000000000000000000000602082015250565b60006133ad602283613340565b91506133b882613351565b604082019050919050565b600060208201905081810360008301526133dc816133a0565b9050919050565b6000604051905090565b600080fd5b600080fd5b60007fffffffff0000000000000000000000000000000000000000000000000000000082169050919050565b61342c816133f7565b811461343757600080fd5b50565b60008135905061344981613423565b92915050565b600060208284031215613465576134646133ed565b5b60006134738482850161343a565b91505092915050565b60008115159050919050565b6134918161347c565b82525050565b60006020820190506134ac6000830184613488565b92915050565b600081519050919050565b60005b838110156134db5780820151818401526020810190506134c0565b60008484015250505050565b6000601f19601f8301169050919050565b6000613503826134b2565b61350d8185613340565b935061351d8185602086016134bd565b613526816134e7565b840191505092915050565b6000602082019050818103600083015261354b81846134f8565b905092915050565b6000819050919050565b61356681613553565b811461357157600080fd5b50565b6000813590506135838161355d565b92915050565b60006020828403121561359f5761359e6133ed565b5b60006135ad84828501613574565b91505092915050565b600073ffffffffffffffffffffffffffffffffffffffff82169050919050565b60006135e1826135b6565b9050919050565b6135f1816135d6565b82525050565b600060208201905061360c60008301846135e8565b92915050565b61361b816135d6565b811461362657600080fd5b50565b60008135905061363881613612565b92915050565b60008060408385031215613655576136546133ed565b5b600061366385828601613629565b925050602061367485828601613574565b9150509250929050565b600080600060608486031215613697576136966133ed565b5b60006136a586828701613629565b93505060206136b686828701613629565b92505060406136c786828701613574565b9150509250925092565b6000602082840312156136e7576136e66133ed565b5b60006136f584828501613629565b91505092915050565b61370781613553565b82525050565b600060208201905061372260008301846136fe565b92915050565b6000806040838503121561373f5761373e6133ed565b5b600061374d85828601613574565b925050602061375e85828601613574565b9150509250929050565b6000604082019050818103600083015261378281856134f8565b905061379160208301846136fe565b9392505050565b600060608201905081810360008301526137b281866134f8565b905081810360208301526137c681856134f8565b90506137d560408301846135e8565b949350505050565b600060ff82169050919050565b6137f3816137dd565b82525050565b600061ffff82169050919050565b613810816137f9565b82525050565b60006101208201905061382c600083018c6135e8565b818103602083015261383e818b6134f8565b905061384d604083018a6137ea565b61385a6060830189613807565b6138676080830188613488565b61387460a08301876136fe565b61388160c0830186613488565b81810360e083015261389381856134f8565b90506138a36101008301846137ea565b9a9950505050505050505050565b600080fd5b600080fd5b7f4e487b7100000000000000000000000000000000000000000000000000000000600052604160045260246000fd5b6138f3826134e7565b810181811067ffffffffffffffff82111715613912576139116138bb565b5b80604052505050565b60006139256133e3565b905061393182826138ea565b919050565b600067ffffffffffffffff821115613951576139506138bb565b5b61395a826134e7565b9050602081019050919050565b82818337600083830152505050565b600061398961398484613936565b61391b565b9050828152602081018484840111156139a5576139a46138b6565b5b6139b0848285613967565b509392505050565b600082601f8301126139cd576139cc6138b1565b5b81356139dd848260208601613976565b91505092915050565b6000806000606084860312156139ff576139fe6133ed565b5b6000613a0d86828701613574565b935050602084013567ffffffffffffffff811115613a2e57613a2d6133f2565b5b613a3a868287016139b8565b9250506040613a4b86828701613574565b9150509250925092565b613a5e8161347c565b8114613a6957600080fd5b50565b600081359050613a7b81613a55565b92915050565b60008060408385031215613a9857613a976133ed565b5b6000613aa685828601613629565b9250506020613ab785828601613a6c565b9150509250929050565b600080600060608486031215613ada57613ad96133ed565b5b6000613ae886828701613629565b935050602084013567ffffffffffffffff811115613b0957613b086133f2565b5b613b15868287016139b8565b925050604084013567ffffffffffffffff811115613b3657613b356133f2565b5b613b42868287016139b8565b9150509250925092565b600067ffffffffffffffff821115613b6757613b666138bb565b5b613b70826134e7565b9050602081019050919050565b6000613b90613b8b84613b4c565b61391b565b905082815260208101848484011115613bac57613bab6138b6565b5b613bb7848285613967565b509392505050565b600082601f830112613bd457613bd36138b1565b5b8135613be4848260208601613b7d565b91505092915050565b60008060008060808587031215613c0757613c066133ed565b5b6000613c1587828801613629565b9450506020613c2687828801613629565b9350506040613c3787828801613574565b925050606085013567ffffffffffffffff811115613c5857613c576133f2565b5b613c6487828801613bbf565b91505092959194509250565b613c79816137dd565b8114613c8457600080fd5b50565b600081359050613c9681613c70565b92915050565b613ca5816137f9565b8114613cb057600080fd5b50565b600081359050613cc281613c9c565b92915050565b60008060008060808587031215613ce257613ce16133ed565b5b6000613cf087828801613629565b945050602085013567ffffffffffffffff811115613d1157613d106133f2565b5b613d1d878288016139b8565b9350506040613d2e87828801613c87565b9250506060613d3f87828801613cb3565b91505092959194509250565b60008060408385031215613d6257613d616133ed565b5b6000613d7085828601613629565b9250506020613d8185828601613629565b9150509250929050565b600080600060608486031215613da457613da36133ed565b5b6000613db286828701613574565b935050602084013567ffffffffffffffff811115613dd357613dd26133f2565b5b613ddf868287016139b8565b9250506040613df086828701613c87565b9150509250925092565b7f4e487b7100000000000000000000000000000000000000000000000000000000600052602260045260246000fd5b60006002820490506001821680613e4157607f821691505b602082108103613e5457613e53613dfa565b5b50919050565b7f4552433732313a20617070726f76616c20746f2063757272656e74206f776e6560008201527f7200000000000000000000000000000000000000000000000000000000000000602082015250565b6000613eb6602183613340565b9150613ec182613e5a565b604082019050919050565b60006020820190508181036000830152613ee581613ea9565b9050919050565b7f4552433732313a20617070726f76652063616c6c6572206973206e6f7420746f60008201527f6b656e206f776e6572206f7220617070726f76656420666f7220616c6c000000602082015250565b6000613f48603d83613340565b9150613f5382613eec565b604082019050919050565b60006020820190508181036000830152613f7781613f3b565b9050919050565b7f4552433732313a2063616c6c6572206973206e6f7420746f6b656e206f776e6560008201527f72206f7220617070726f76656400000000000000000000000000000000000000602082015250565b6000613fda602d83613340565b9150613fe582613f7e565b604082019050919050565b6000602082019050818103600083015261400981613fcd565b9050919050565b7f4552433732313a20696e76616c696420746f6b656e2049440000000000000000600082015250565b6000614046601883613340565b915061405182614010565b602082019050919050565b6000602082019050818103600083015261407581614039565b9050919050565b7f43616c6c6572206973206e6f7420737461666600000000000000000000000000600082015250565b60006140b2601383613340565b91506140bd8261407c565b602082019050919050565b600060208201905081810360008301526140e1816140a5565b9050919050565b7f4552433732313a2061646472657373207a65726f206973206e6f74206120766160008201527f6c6964206f776e65720000000000000000000000000000000000000000000000602082015250565b6000614144602983613340565b915061414f826140e8565b604082019050919050565b6000602082019050818103600083015261417381614137565b9050919050565b600081905092915050565b6000614190826134b2565b61419a818561417a565b93506141aa8185602086016134bd565b80840191505092915050565b60006141c28285614185565b91506141ce8284614185565b91508190509392505050565b7f4e487b7100000000000000000000000000000000000000000000000000000000600052601160045260246000fd5b600061421482613553565b915061421f83613553565b9250828203905081811115614237576142366141da565b5b92915050565b7f68747470733a2f2f686f73706974616c2d6d65642d6e66742e696f2f6d65746160008201527f646174612f000000000000000000000000000000000000000000000000000000602082015250565b600061429960258361417a565b91506142a48261423d565b602582019050919050565b7f2e6a736f6e000000000000000000000000000000000000000000000000000000600082015250565b60006142e560058361417a565b91506142f0826142af565b600582019050919050565b60006143068261428c565b91506143128284614185565b915061431d826142d8565b915081905092915050565b7f5265656e7472616e742063616c6c000000000000000000000000000000000000600082015250565b600061435e600e83613340565b915061436982614328565b602082019050919050565b6000602082019050818103600083015261438d81614351565b9050919050565b7f4e6f742070617965720000000000000000000000000000000000000000000000600082015250565b60006143ca600983613340565b91506143d582614394565b602082019050919050565b600060208201905081810360008301526143f9816143bd565b9050919050565b7f556e646572706169640000000000000000000000000000000000000000000000600082015250565b6000614436600983613340565b915061444182614400565b602082019050919050565b6000602082019050818103600083015261446581614429565b9050919050565b7f4f776e61626c653a206e6577206f776e657220697320746865207a65726f206160008201527f6464726573730000000000000000000000000000000000000000000000000000602082015250565b60006144c8602683613340565b91506144d38261446c565b604082019050919050565b600060208201905081810360008301526144f7816144bb565b9050919050565b7f4552433732313a207472616e736665722066726f6d20696e636f72726563742060008201527f6f776e6572000000000000000000000000000000000000000000000000000000602082015250565b600061455a602583613340565b9150614565826144fe565b604082019050919050565b600060208201905081810360008301526145898161454d565b9050919050565b7f4552433732313a207472616e7366657220746f20746865207a65726f2061646460008201527f7265737300000000000000000000000000000000000000000000000000000000602082015250565b60006145ec602483613340565b91506145f782614590565b604082019050919050565b6000602082019050818103600083015261461b816145df565b9050919050565b7f4e6f742061646d69747465640000000000000000000000000000000000000000600082015250565b6000614658600c83613340565b915061466382614622565b602082019050919050565b600060208201905081810360008301526146878161464b565b9050919050565b7f42696c6c20756e70616964000000000000000000000000000000000000000000600082015250565b60006146c4600b83613340565b91506146cf8261468e565b602082019050919050565b600060208201905081810360008301526146f3816146b7565b9050919050565b7f4f776e61626c653a2063616c6c6572206973206e6f7420746865206f776e6572600082015250565b6000614730602083613340565b915061473b826146fa565b602082019050919050565b6000602082019050818103600083015261475f81614723565b9050919050565b7f436f7374206d75737420626520706f7369746976650000000000000000000000600082015250565b600061479c601583613340565b91506147a782614766565b602082019050919050565b600060208201905081810360008301526147cb8161478f565b9050919050565b7f4465736372697074696f6e207265717569726564000000000000000000000000600082015250565b6000614808601483613340565b9150614813826147d2565b602082019050919050565b60006020820190508181036000830152614837816147fb565b9050919050565b60008190508160005260206000209050919050565b60006020601f8301049050919050565b600082821b905092915050565b6000600883026148a07fffffffffffffffffffffffffffffffffffffffffffffffffffffffffffffffff82614863565b6148aa8683614863565b95508019841693508086168417925050509392505050565b6000819050919050565b60006148e76148e26148dd84613553565b6148c2565b613553565b9050919050565b6000819050919050565b614901836148cc565b61491561490d826148ee565b848454614870565b825550505050565b600090565b61492a61491d565b6149358184846148f8565b505050565b5b818110156149595761494e600082614922565b60018101905061493b565b5050565b601f82111561499e5761496f8161483e565b61497884614853565b81016020851015614987578190505b61499b61499385614853565b83018261493a565b50505b505050565b600082821c905092915050565b60006149c1600019846008026149a3565b1980831691505092915050565b60006149da83836149b0565b9150826002028217905092915050565b6149f3826134b2565b67ffffffffffffffff811115614a0c57614a0b6138bb565b5b614a168254613e29565b614a2182828561495d565b600060209050601f831160018114614a545760008415614a42578287015190505b614a4c85826149ce565b865550614ab4565b601f198416614a628661483e565b60005b82811015614a8a57848901518255600182019150602085019450602081019050614a65565b86831015614aa75784890151614aa3601f8916826149b0565b8355505b6001600288020188555050505b505050505050565b7f4552433732313a20617070726f766520746f2063616c6c657200000000000000600082015250565b6000614af2601983613340565b9150614afd82614abc565b602082019050919050565b60006020820190508181036000830152614b2181614ae5565b9050919050565b7f496e76616c69642077616c6c6574000000000000000000000000000000000000600082015250565b6000614b5e600e83613340565b9150614b6982614b28565b602082019050919050565b60006020820190508181036000830152614b8d81614b51565b9050919050565b6000614b9f82613553565b91507fffffffffffffffffffffffffffffffffffffffffffffffffffffffffffffffff8203614bd157614bd06141da565b5b600182019050919050565b7f4552433732313a207472616e7366657220746f206e6f6e20455243373231526560008201527f63656976657220696d706c656d656e7465720000000000000000000000000000602082015250565b6000614c38603283613340565b9150614c4382614bdc565b604082019050919050565b60006020820190508181036000830152614c6781614c2b565b9050919050565b7f496e76616c69642077616c6c6574206164647265737300000000000000000000600082015250565b6000614ca4601683613340565b9150614caf82614c6e565b602082019050919050565b60006020820190508181036000830152614cd381614c97565b9050919050565b7f42656420616c7265616479206f63637570696564000000000000000000000000600082015250565b6000614d10601483613340565b9150614d1b82614cda565b602082019050919050565b60006020820190508181036000830152614d3f81614d03565b9050919050565b7f4552433732313a206d696e7420746f20746865207a65726f2061646472657373600082015250565b6000614d7c602083613340565b9150614d8782614d46565b602082019050919050565b60006020820190508181036000830152614dab81614d6f565b9050919050565b7f4552433732313a20746f6b656e20616c7265616479206d696e74656400000000600082015250565b6000614de8601c83613340565b9150614df382614db2565b602082019050919050565b60006020820190508181036000830152614e1781614ddb565b9050919050565b7f4e487b7100000000000000000000000000000000000000000000000000000000600052601260045260246000fd5b7f45524337323155524953746f726167653a2055524920736574206f66206e6f6e60008201527f6578697374656e7420746f6b656e000000000000000000000000000000000000602082015250565b6000614ea9602e83613340565b9150614eb482614e4d565b604082019050919050565b60006020820190508181036000830152614ed881614e9c565b9050919050565b7f4e487b7100000000000000000000000000000000000000000000000000000000600052603260045260246000fd5b6000614f1982613553565b9150614f2483613553565b9250828201905080821115614f3c57614f3b6141da565b5b92915050565b7f436f6e666964656e6365206d75737420626520302d3130300000000000000000600082015250565b6000614f78601883613340565b9150614f8382614f42565b602082019050919050565b60006020820190508181036000830152614fa781614f6b565b9050919050565b7f446961676e6f7369732072657175697265640000000000000000000000000000600082015250565b6000614fe4601283613340565b9150614fef82614fae565b602082019050919050565b6000602082019050818103600083015261501381614fd7565b9050919050565b6000604082019050818103600083015261503481856134f8565b905061504360208301846137ea565b9392505050565b600081519050919050565b600082825260208201905092915050565b60006150718261504a565b61507b8185615055565b935061508b8185602086016134bd565b615094816134e7565b840191505092915050565b60006080820190506150b460008301876135e8565b6150c160208301866135e8565b6150ce60408301856136fe565b81810360608301526150e08184615066565b905095945050505050565b6000815190506150fa81613423565b92915050565b600060208284031215615116576151156133ed565b5b6000615124848285016150eb565b9150509291505056fea26469706673582212209a5c1c436e0d3fa75cfcfdd7c73bc9955428eb71f1105e47688f3956d82b560064736f6c63430008120033",
  "immutableReferences": {},
  "source": "// SPDX-License-Identifier: MIT\r\npragma solidity ^0.8.18;\r\n\r\nimport \"@openzeppelin/contracts/token/ERC721/extensions/ERC721URIStorage.sol\";\r\nimport \"@openzeppelin/contracts/access/Ownable.sol\";\r\nimport \"@openzeppelin/contracts/security/ReentrancyGuard.sol\";\r\nimport \"@openzeppelin/contracts/utils/Strings.sol\";\r\n\r\nimport \"./PatientManagement.sol\";\r\nimport \"./Billing.sol\";\r\nimport \"./StaffManagement.sol\";\r\n\r\ncontract HospitalManagement is ERC721URIStorage, Ownable, ReentrancyGuard, PatientManagement, Billing, StaffManagement {\r\n    modifier onlyStaff() override(PatientManagement, StaffManagement, Billing) {\r\n        require(isStaff(msg.sender), \"Caller is not staff\");\r\n        _;\r\n    }\r\n    using Strings for uint256;\r\n\r\n    uint256 public bedCounter;\r\n    bool private locked;\r\n\r\n    constructor(string memory name, string memory symbol) ERC721(name, symbol) {\r\n        bedCounter = 100;\r\n        patientCounter = 1;\r\n        employeeCounter = 1;\r\n    }\r\n\r\n    modifier customNonReentrant() {\r\n        require(!locked, \"Reentrant call\");\r\n        locked = true;\r\n        _;\r\n        locked = false;\r\n    }\r\n\r\n    function addStaff(address wallet, string memory name, string memory role) public onlyOwner {\r\n        _addStaff(wallet, name, role);\r\n    }\r\n\r\n    function admitPatient(address wallet, string memory name, uint8 age, uint16 bedId) public onlyStaff {\r\n        _admitPatient(wallet, name, age, bedId);\r\n        uint256 tokenId = patientCounter - 1;\r\n\r\n        _mint(wallet, tokenId);\r\n        _setTokenURI(tokenId, string(abi.encodePacked(\"https://hospital-med-nft.io/metadata/\", tokenId.toString(), \".json\")));\r\n    }\r\n\r\n    function addBillItem(uint256 patientId, string memory desc, uint256 cost) public onlyStaff {\r\n        _addBillItem(patientId, desc, cost);\r\n    }\r\n\r\n    function payBill(uint256 patientId) public payable customNonReentrant {\r\n        require(msg.sender == patients[patientId].wallet, \"Not payer\");\r\n        uint256 total = _getBillTotal(patientId);\r\n        require(msg.value >= total, \"Underpaid\");\r\n\r\n        if (msg.value > total) {\r\n            payable(msg.sender).transfer(msg.value - total);\r\n        }\r\n\r\n        _markPaid(patientId);\r\n        emit PaymentProcessed(patientId);\r\n    }\r\n\r\n    function dischargePatient(uint256 patientId) public onlyStaff {\r\n        _dischargePatient(patientId);\r\n    }\r\n\r\n    function recordDiagnosis(uint256 patientId, string memory diagnosis, uint8 confidence) public onlyStaff {\r\n        _recordDiagnosis(patientId, diagnosis, confidence);\r\n    }\r\n\r\n    // Internal override hooks\r\n    function _incrementBill(uint256 patientId, uint256 amount) internal override {\r\n        patients[patientId].bill += amount;\r\n    }\r\n\r\n    function _markPaid(uint256 patientId) internal override {\r\n        patients[patientId].paid = true;\r\n    }\r\n\r\n    receive() external payable {\r\n        revert(\"Direct Ether transfers not allowed\");\r\n    }\r\n}\r\n",
  "sourcePath": "C:\\Users\\Administrator\\Will Projects\\python file\\Hospital_Management_System\\contracts\\HospitalManagement.sol",
  "compiler": {
    "name": "solc",
    "version": "0.8.18+commit.87f61d96.Emscripten.clang"
  },
  "schemaVersion": "3.4.16",
  "updatedAt": "2025-04-15T01:57:48.530Z",
  "networkType": "ethereum",
  "devdoc": {
    "events": {
      "Approval(address,address,uint256)": {
        "details": "Emitted when `owner` enables `approved` to manage the `tokenId` token."
      },
      "ApprovalForAll(address,address,bool)": {
        "details": "Emitted when `owner` enables or disables (`approved`) `operator` to manage all of its assets."
      },
      "BatchMetadataUpdate(uint256,uint256)": {
        "details": "This event emits when the metadata of a range of tokens is changed. So that the third-party platforms such as NFT market could timely update the images and related attributes of the NFTs."
      },
      "MetadataUpdate(uint256)": {
        "details": "This event emits when the metadata of a token is changed. So that the third-party platforms such as NFT market could timely update the images and related attributes of the NFT."
      },
      "Transfer(address,address,uint256)": {
        "details": "Emitted when `tokenId` token is transferred from `from` to `to`."
      }
    },
    "kind": "dev",
    "methods": {
      "approve(address,uint256)": {
        "details": "See {IERC721-approve}."
      },
      "balanceOf(address)": {
        "details": "See {IERC721-balanceOf}."
      },
      "getApproved(uint256)": {
        "details": "See {IERC721-getApproved}."
      },
      "isApprovedForAll(address,address)": {
        "details": "See {IERC721-isApprovedForAll}."
      },
      "name()": {
        "details": "See {IERC721Metadata-name}."
      },
      "owner()": {
        "details": "Returns the address of the current owner."
      },
      "ownerOf(uint256)": {
        "details": "See {IERC721-ownerOf}."
      },
      "renounceOwnership()": {
        "details": "Leaves the contract without owner. It will not be possible to call `onlyOwner` functions. Can only be called by the current owner. NOTE: Renouncing ownership will leave the contract without an owner, thereby disabling any functionality that is only available to the owner."
      },
      "safeTransferFrom(address,address,uint256)": {
        "details": "See {IERC721-safeTransferFrom}."
      },
      "safeTransferFrom(address,address,uint256,bytes)": {
        "details": "See {IERC721-safeTransferFrom}."
      },
      "setApprovalForAll(address,bool)": {
        "details": "See {IERC721-setApprovalForAll}."
      },
      "supportsInterface(bytes4)": {
        "details": "See {IERC165-supportsInterface}"
      },
      "symbol()": {
        "details": "See {IERC721Metadata-symbol}."
      },
      "tokenURI(uint256)": {
        "details": "See {IERC721Metadata-tokenURI}."
      },
      "transferFrom(address,address,uint256)": {
        "details": "See {IERC721-transferFrom}."
      },
      "transferOwnership(address)": {
        "details": "Transfers ownership of the contract to a new account (`newOwner`). Can only be called by the current owner."
      }
    },
    "version": 1
  },
  "userdoc": {
    "kind": "user",
    "methods": {},
    "version": 1
  }
}